:020000040800F2
:10000000B00200205D0100086501000867010008DA
:1000100000000000000000000000000000000000E0
:10002000000000000000000000000000690100085E
:1000300000000000000000006B0100087D090008BE
:100040006F010008000000006F0100086F01000848
:100050006F0100086F0100086F0100086F010008C0
:10006000000000006F0100086F010008B1050008E2
:100070006F0100086F0100086F0100080000000018
:100080006F01000800000000000000006F01000880
:100090006F0100086F0100086F0100086F01000880
:1000A0006F0100086F0100086F0100086F01000870
:1000B0006F01000800F002F800F040F80CA030C812
:1000C000083824182D18A246671EAB4654465D46D4
:1000D000AC4201D100F032F87E460F3E0FCCB6465E
:1000E0000126334200D0FB1AA246AB4633431847E1
:1000F000940D0000B40D0000103A02D378C878C106
:10010000FAD8520701D330C830C101D504680C6059
:10011000704700000023002400250026103A01D378
:1001200078C1FBD8520700D330C100D50B607047AF
:100130001FB5C046C0461FBD10B510BD00F01FF969
:100140001146FFF7F5FF00F0AFFC00F037F903B4FC
:10015000FFF7F2FF03BC00F03BF9000007488047BF
:1001600007480047FEE7FEE7FEE7FEE7FEE7FEE79B
:1001700004480549034A054B70470000FD09000883
:10018000B5000008B0000020B0020020B000002040
:10019000002203098B4273D3030A8B4258D3030B0B
:1001A0008B423CD3030C8B4221D312E003460B431A
:1001B0007FD4002243088B4274D303098B425FD360
:1001C000030A8B4244D3030B8B4228D3030C8B428C
:1001D0000DD3FF22090212BA030C8B4202D3121272
:1001E000090265D0030B8B4219D300E0090AC30B47
:1001F0008B4201D3CB03C01A5241830B8B4201D3F4
:100200008B03C01A5241430B8B4201D34B03C01ADC
:100210005241030B8B4201D30B03C01A5241C30A54
:100220008B4201D3CB02C01A5241830A8B4201D3C5
:100230008B02C01A5241430A8B4201D34B02C01AAF
:100240005241030A8B4201D30B02C01A5241CDD254
:10025000C3098B4201D3CB01C01A524183098B429F
:1002600001D38B01C01A524143098B4201D34B0188
:10027000C01A524103098B4201D30B01C01A5241EB
:10028000C3088B4201D3CB00C01A524183088B4272
:1002900001D38B00C01A524143088B4201D34B005B
:1002A000C01A5241411A00D20146524110467047CD
:1002B0005DE0CA0F00D04942031000D340425340D2
:1002C00000229C4603098B422DD3030A8B4212D392
:1002D000FC22890112BA030A8B420CD389019211C4
:1002E0008B4208D3890192118B4204D389013AD001
:1002F000921100E08909C3098B4201D3CB01C01AD6
:10030000524183098B4201D38B01C01A52414309E8
:100310008B4201D34B01C01A524103098B4201D3D6
:100320000B01C01A5241C3088B4201D3CB00C01A43
:10033000524183088B4201D38B00C01A5241D9D25B
:1003400043088B4201D34B00C01A5241411A00D2DC
:100350000146634652415B10104601D34042002BD8
:1003600000D54942704763465B1000D3404201B557
:100370000020C046C04602BD7047704770477546B2
:1003800000F022F8AE46050069465346C008C0009A
:10039000854618B020B5FFF7EBFE60BC0027490882
:1003A000B6460026C0C5C0C5C0C5C0C5C0C5C0C50D
:1003B000C0C5C0C5403D49008D4670470446C04693
:1003C000C0462046FFF7C3FE004870474C0000209F
:1003D00001491820ABBEFEE726000200704710B5A9
:1003E000402900D940210A460146052000F01AF8AC
:1003F00010BD70B5012109050924E406A161402161
:10040000084300F049FA20680125ED03A843206065
:10041000FF2000F041FA1021A161216829432160E9
:1004200070BD0000F8B50C46012109050926F60645
:100430001546B1614021084300F02EFA30680127CB
:10044000FF03B84330600021002D0FD90A4BFF2273
:1004500018898007FCD51A731889C007FCD09889C1
:100460002070491C641C89B2A942F0D31020B061ED
:10047000306838433060F8BD00300140F1B50127E5
:10048000092582B03F05ED06A020AF6100F004FA17
:10049000124C20890006FCD41026AE61F020AF611A
:1004A00000F0FAF920890006FCD4AE6102990091AF
:1004B0000F20AF6100F0F0F9009800F0EDF920890D
:1004C0000006FCD4AE61C020AF6100F0E5F92089E0
:1004D0000006FCD4AE6103B0F0BD00000030014066
:1004E00070B50121092400200905E4060546A16133
:1004F00000F0D2F9284600F0CFF903480189090637
:10050000FCD41020A06170BD0030014010B5012165
:1005100009240905E406A16100F0BEF90348018938
:100520000906FCD41020A06110BD0000003001407D
:10053000F8B5010E6A461170010C5170010A9170F4
:10054000D07004250926A904F60606206C46B16180
:1005500000F0A2F90A4800222378641C0189890767
:10056000FCD503730189C907FCD08189521C92B262
:10057000AA42F1D301890906FCD41020B061F8BD6C
:100580000030014070B5012209241205E4060D4631
:10059000A26100F081F9284600F07EF90348018944
:1005A0000906FCD41020A06170BD0000003001409D
:1005B00006480168890407D50121490341600449BF
:1005C00000204860034908707047000000000240A6
:1005D000400002402100002010B51C4C6069012140
:1005E0004904084360610920C0060168032292049F
:1005F00091430122D2048918016010214162A0694F
:1006000089020843A0611248E12149020068FFF70E
:10061000BFFD104988818020886009200860C86972
:100620004006FCD5086A4022104308620A490020AF
:100630000870A06901221043A061084801684315B1
:100640001943016060691043606110BD00100240F1
:10065000000000200038014021000020000001407F
:100660000B490A78002AFCD10A4A102393601061D2
:100670000948D060094850600120087008480168A6
:100680000902090A01600749D01408607047000098
:100690002100002040000240283801409310000053
:1006A00008E400E000E100E0F8B500273C463D46E4
:1006B0003846FFF7E3FE0926F6061B48008A800746
:1006C00019D40020FFF795FE800606D5F020FFF72D
:1006D0001DFFC020FFF71AFF0DE015211348FFF79B
:1006E0007EFE124B124900201A5C0A54401C80B254
:1006F0000528F9D301270F4841684A1B0E498A4251
:100700000CD94568002C05D00024002C04D0012011
:10071000400402E00124F8E70220B061002FCCD0B1
:1007200001204004B061F8BD0004004834000020FE
:100730001C000020140000201027000070B5FFF7F7
:10074000CFFE1548FFF7F4FE144D0024295DFF2964
:1007500002D0E0B2FFF716FF641CA4B2332CF5D32D
:10076000A020FFF7D3FE01210220FFF70BFF02209C
:10077000FFF73FFE0028FAD12220FFF73AFE1321AF
:100780002420FFF7FFFE09212520FFF7FBFEA02014
:10079000FFF7BCFE70BD00002AC57554500D00085F
:1007A00070B500F0F3F81F481D490068FFF7F0FC32
:1007B0001D49401E0423002288420BD81B49486172
:1007C0001B480725C4692402240A4E043443C4612B
:1007D0008A610D6117484169012464042143416124
:1007E0000921154CC9060C6002248C80134CCC6086
:1007F000134C8C60134C8C614169A403214341610B
:100800001149CB6081698314194381610F480280CB
:10081000172109028180D1218900018070BD00006B
:100820001027000000000020FFFFFF0000E000E0B4
:1008300004ED00E00010024004A90028A220A282DA
:1008400000CC000C1000A000000400480030014063
:10085000012210B49302994219D84A1C5408621E0E
:100860000C4B92B2002C11D01C8804709B1C401CB5
:10087000491E0904090C04D0240A0470401C491EB6
:1008800089B21446521E92B2002CEDD1002210BC47
:1008900010467047003C000805490A899207FCD5BC
:1008A00008730889C007FCD08889C0B2704700006F
:1008B00000300140F0B401229302994252D82B4BF0
:1008C0002B4FFA68D207FCD13A69120603D5294AA0
:1008D0007A60294A7A603A69022422433A617B614C
:1008E0003A6940252A433A61FA68D207FCD1FA688E
:1008F00095062022002D02DAFD681543FD603D6952
:10090000A5433D614C1C65086C1EA4B2002D24D08B
:1009100001260278401C491E0904090C05D00578FF
:10092000401C2D022A43491E89B23D6935433D6171
:100930001A809B1CFA68D207FCD1FA68920603D58C
:10094000FA6820252A43FA603A69520852003A614F
:100950002246641EA4B2002ADBD1386980210843F4
:1009600038610022F0BC104670470000003C0008CF
:100970000020024023016745AB89EFCD0248416862
:10098000491C4160704700001400002070B5164EED
:1009900071680C2001401548154D03D0042901D081
:1009A000082901D0286011E072687168032392025F
:1009B000DB03140F1940A41C002910D0F16A0907A9
:1009C000090F491CFFF7E4FB604328607068094980
:1009D0000006000F085C2968C140296070BD064808
:1009E00044432C60F2E700000010024000127A003D
:1009F000000000200400002000093D002648016896
:100A00000122114301604168244A1140416001689C
:100A1000234A114001600168012292049143016060
:100A200041683F22120491434160C16A09090901EA
:100A3000C162016BFF22543291430163416B49084B
:100A40004900416300218160164A1021116041680C
:100A500041604168416041687F22D2039143416017
:100A60004168032292041143416001680122120689
:100A70001143016001688901FCD54168890889003A
:100A80004160416802221143416041680907890FB2
:100A90000229FAD170470000001002400CB8FF088C
:100AA000FFFFF6FE0020024086B0002000250490E3
:100AB000009010202E462C4601950290FFF770FE04
:100AC000994900204A6901235B041A434A610927B6
:100AD000FF063A680F2189068A43DB02D2183A6082
:100AE0003A8A920400D401200923DB061A688A435B
:100AF0000521C9065118196003908C4F7D20796833
:100B0000C0007A68521A8242FBD3FFF765FDFFF7F7
:100B100015FE05218648FFF79BFE0398002803D1A8
:100B2000834B1878AA2806D0FFF7BEFD0521804820
:100B3000FFF7C0FEFEE77F490A7810464A781202A6
:100B400010438A78C97812041043090608431979BA
:100B5000090608430107090F39700006000F00213C
:100B6000B8707970092801D90920B87078680390A5
:100B70007148008A800739D40020FFF73AFC8006CC
:100B800006D5F020FFF7C2FCC020FFF7BFFC2DE028
:100B900015216A48FFF723FC6848654942784B787D
:100BA0009A4223D182788B789A421FD1C278CB782F
:100BB0009A421BD100790979884217D15B4A506863
:100BC00003901078937801015D4808185178405CD3
:100BD000491CC01A401EC0B20907D070090F5170DD
:100BE000FFF74CFC28260025102002904F4F796813
:100BF0000398091A029881421DD33878BA78010106
:100C00004F4808187978405C491C801A401EC0B2D1
:100C10000907F870090F7970FFF730FC78680390C6
:100C20004848854201D26D1CADB2782D01D20F200B
:100C300000E0102002903D4841680498081A6E2890
:100C400035D9002E39D0394A761E5068F6B23E4862
:100C500000210170B221417000273448406804909F
:100C600078003649059040188179427908027D2143
:100C70001043C900884201D9401A00E000208202D6
:100C8000101AFF30F530FFF783FAB9028005800DA6
:100C900008432D49059B020A59187F1C8A70FFB230
:100CA000C870072FD9D310212748FFF7D9FC019826
:100CB000002808D0002C03D005E001200190F9E7BE
:100CC000002001240190052C2CD223007B441B79A9
:100CD000DB189F4427020C161F0001204004092145
:100CE000C906886111484068022400901AE00F4844
:100CF00041680098091A7D20C000814212D903245E
:100D000010E002200921C9068861084840680424CF
:100D1000009007E0054841680098091A0B48814295
:100D200000D9002430BF23E7001002401400002047
:100D30001C0000201D00002000040048340000209A
:100D4000830D0008FFFF000024000020881300002E
:100D5000FF42001400FFFF000000000121050050C9
:100D60009E4B0002162B1200628080000A32C30FD5
:100D700013C300FF00003B00174780030145180024
:100D8000010FFF0A5A14641E6E287832823C8C468A
:100D90009650A0A05096468C3C823278286E1E64F5
:100DA000145A0A0A5A50A0146446961E6E3C8C28A7
:100DB000783282823278288C3C6E1E96466414A06B
:100DC000505A0A28780A5A50A014641E6E3C8C327D
:100DD000824696964682328C3C6E1E6414A0505A0F
:100DE0000A782850A028780A5A1E6E3C8C32824617
:100DF0009614646414964682328C3C6E1E5A0A78AD
:100E000028A05050A046963C8C28780A5A32821E60
:100E10006E146464146E1E82325A0A78288C3C96D2
:100E200046A05046963C8C50A028780A5A1E6E3236
:100E3000821464641482326E1E5A0A7828A0508C80
:100E40003C964646960A5A3C8C146450A028781E5C
:100E50006E328282326E1E7828A05064148C3C5A06
:100E60000A964646960A5A50A03C8C28781E6E3246
:100E7000821464641482326E1E78288C3CA0505A0E
:100E80000A964600A40E000800000020240000007E
:100E9000F8000008C80E0008240000208C020000A2
:100EA00014010008002D31010000000000000000C6
:100EB000010203040607080900000000000000000A
:080EC00000000000000000002A
:04000005080000B53A
:00000001FF
